:02000004085F93
:10A0000000A05F08FCFF5F080000060020000501BB
:08A010000401A018000000008B
:10A018001348144908B5884205D0134A824202D031
:10A02800124B121A98471248124A0021124B121A60
:10A03800984712481249884205D0124A824202D0F3
:10A048000A4B121A984710481049884205D0104AFE
:10A05800824202D0054B121A9847014808BD00BF3A
:10A06800E8AC071058EE5F08DCAE07102D0D111094
:10A07800E0AE0710F8AF0710A10E111048B23F026A
:10A08800A8A05F0850B23F0250B23F02B0A05F08DC
:0CA09800F8FF3F0219A05F080000000064
:08A0A8009CA05F0894F93F023F
:10A0B00081F0004102E000BF83F0004330B54FEA79
:10A0C00041044FEA430594EA050F08BF90EA020FE6
:10A0D0001FBF54EA000C55EA020C7FEA645C7FEA79
:10A0E000655C00F0E2804FEA5454D4EB5555B8BF9C
:10A0F0006D420CDD2C4480EA020281EA030382EA0D
:10A10000000083EA010180EA020281EA0303362D9E
:10A1100088BF30BD11F0004F4FEA01314FF4801C71
:10A120004CEA113102D0404261EB410113F0004F83
:10A130004FEA03334CEA133302D0524263EB43033A
:10A1400094EA050F00F0A780A4F10104D5F1200ED8
:10A150000DDB02FA0EFC22FA05F2801841F1000133
:10A1600003FA0EF2801843FA05F359410EE0A5F107
:10A1700020050EF1200E012A03FA0EFC28BF4CF038
:10A18000020C43FA05F3C01851EBE37101F00045EE
:10A1900007D54FF0000EDCF1000C7EEB00006EEBFB
:10A1A0000101B1F5801F1BD3B1F5001F0CD3490885
:10A1B0005FEA30004FEA3C0C04F101044FEA4452DC
:10A1C00012F5800F80F09A80BCF1004F08BF5FEA63
:10A1D000500C50F1000041EB045141EA050130BD43
:10A1E0005FEA4C0C404141EB0101013C28BFB1F555
:10A1F000801FE9D291F0000F04BF01460020B1FAA0
:10A2000081F308BF2033A3F10B03B3F120020CDA72
:10A210000C3208DD02F1140CC2F10C0201FA0CF050
:10A2200021FA02F10CE002F11402D8BFC2F1200CB5
:10A2300001FA02F120FA0CFCDCBF41EA0C0190406B
:10A24000E41AA2BF01EB0451294330BD6FEA0404B4
:10A250001F3C1CDA0C340EDC04F11404C4F120029F
:10A2600020FA04F001FA02F340EA030021FA04F3B1
:10A2700045EA030130BDC4F10C04C4F1200220FA08
:10A2800002F001FA04F340EA0300294630BD21FA46
:10A2900004F0294630BD94F0000F83F4801306BF0C
:10A2A00081F480110134013D4EE77FEA645C18BF00
:10A2B0007FEA655C29D094EA050F08BF90EA020F97
:10A2C00005D054EA000C04BF1946104630BD91EA8F
:10A2D000030F1EBF0021002030BD5FEA545C05D192
:10A2E0004000494128BF41F0004130BD14F58004D1
:10A2F0003CBF01F5801130BD01F0004545F0FE4145
:10A3000041F470014FF0000030BD7FEA645C1ABF79
:10A31000194610467FEA655C1CBF0B46024650EAB0
:10A32000013406BF52EA033591EA030F41F40021DC
:10A3300030BD00BF90F0000F04BF0021704730B562
:10A340004FF4806404F132044FF000054FF0000137
:10A3500050E700BF90F0000F04BF0021704730B5F8
:10A360004FF4806404F1320410F0004548BF4042CD
:10A370004FF000013EE700BF42004FEAE2014FEA22
:10A3800031014FEA02701FBF12F07F4393F07F4FFD
:10A3900081F06051704732F07F4208BF704793F000
:10A3A0007F4F04BF41F40021704730B54FF4607413
:10A3B00001F0004521F000411CE700BF50EA010216
:10A3C00008BF704730B54FF000050AE050EA0102BF
:10A3D00008BF704730B511F0004502D5404261EB2F
:10A3E00041014FF4806404F132045FEA915C3FF470
:10A3F000D8AE4FF003025FEADC0C18BF03325FEA0D
:10A40000DC0C18BF033202EBDC02C2F1200300FABD
:10A4100003FC20FA02F001FA03FE40EA0E0021FAE2
:10A4200002F11444BDE600BF70B54FF0FF0C4CF4D0
:10A43000E06C1CEA11541DBF1CEA135594EA0C0F82
:10A4400095EA0C0F00F0DEF82C4481EA030621EABD
:10A450004C5123EA4C5350EA013518BF52EA0335F8
:10A4600041F4801143F4801338D0A0FB02CE4FF0AA
:10A470000005E1FB02E506F00042E0FB03E54FF0DA
:10A480000006E1FB03569CF0000F18BF4EF0010ED2
:10A49000A4F1FF04B6F5007F64F5407404D25FEACE
:10A4A0004E0E6D4146EB060642EAC62141EA555181
:10A4B0004FEAC52040EA5E504FEACE2EB4F1FD0CC3
:10A4C00088BFBCF5E06F1ED8BEF1004F08BF5FEA41
:10A4D000500E50F1000041EB045170BD06F00046F3
:10A4E00046EA010140EA020081EA0301B4EB5C04A0
:10A4F000C2BFD4EB0C0541EA045170BD41F4801198
:10A500004FF0000E013C00F3AB8014F1360FDEBFBC
:10A51000002001F0004170BDC4F10004203C35DA98
:10A520000C341BDC04F11404C4F1200500FA05F31B
:10A5300020FA04F001FA05F240EA020001F00042BC
:10A5400021F0004110EBD37021FA04F642EB060132
:10A550005EEA430E08BF20EAD37070BDC4F10C045C
:10A56000C4F1200500FA04F320FA05F001FA04F220
:10A5700040EA020001F0004110EBD37041F100010C
:10A580005EEA430E08BF20EAD37070BDC4F1200517
:10A5900000FA05F24EEA020E20FA04F301FA05F27F
:10A5A00043EA020321FA04F001F0004121FA04F227
:10A5B00020EA020000EBD3705EEA430E08BF20EAF7
:10A5C000D37070BD94F0000F0FD101F00046400031
:10A5D00041EB010111F4801F08BF013CF7D041EAB3
:10A5E000060195F0000F18BF704703F000465200B7
:10A5F00043EB030313F4801F08BF013DF7D043EA88
:10A600000603704794EA0C0F0CEA135518BF95EA3D
:10A610000C0F0CD050EA410618BF52EA4306D1D1C4
:10A6200081EA030101F000414FF0000070BD50EAE3
:10A63000410606BF1046194652EA430619D094EA6D
:10A640000C0F02D150EA013613D195EA0C0F05D157
:10A6500052EA03361CBF104619460AD181EA0301AB
:10A6600001F0004141F0FE4141F470014FF0000063
:10A6700070BD41F0FE4141F4780170BD70B54FF0FE
:10A68000FF0C4CF4E06C1CEA11541DBF1CEA13557E
:10A6900094EA0C0F95EA0C0F00F0A7F8A4EB050460
:10A6A00081EA030E52EA03354FEA013100F0888057
:10A6B0004FEA03334FF0805545EA131343EA126320
:10A6C0004FEA022245EA111545EA10654FEA0026D5
:10A6D0000EF000419D4208BF964244F1FD0404F58E
:10A6E000407402D25B084FEA3202B61A65EB0305EA
:10A6F0005B084FEA32024FF480104FF4002CB6EBA7
:10A70000020E75EB030E22BFB61A754640EA0C0026
:10A710005B084FEA3202B6EB020E75EB030E22BF66
:10A72000B61A754640EA5C005B084FEA3202B6EBA7
:10A73000020E75EB030E22BFB61A754640EA9C0066
:10A740005B084FEA3202B6EB020E75EB030E22BF36
:10A75000B61A754640EADC0055EA060E18D04FEAF4
:10A76000051545EA16754FEA06164FEAC30343EA94
:10A7700052734FEAC2025FEA1C1CC0D111F4801F61
:10A780000BD141EA00014FF000004FF0004CB6E75A
:10A7900011F4801F04BF01430020B4F1FD0C88BFF9
:10A7A000BCF5E06F3FF6AFAEB5EB030C04BFB6EB04
:10A7B000020C5FEA500C50F1000041EB045170BDF7
:10A7C0000EF0004E4EEA113114EB5C04C2BFD4EB24
:10A7D0000C0541EA045170BD41F480114FF0000EA8
:10A7E000013C90E645EA060E8DE60CEA135594EA24
:10A7F0000C0F08BF95EA0C0F3FF43BAF94EA0C0F27
:10A800000AD150EA01347FF434AF95EA0C0F7FF49B
:10A8100025AF104619462CE795EA0C0F06D152EAEF
:10A8200003353FF4FDAE1046194622E750EA4106D3
:10A8300018BF52EA43067FF4C5AE50EA41047FF4E4
:10A840000DAF52EA43057FF4EBAE12E74FF0FF3C49
:10A8500006E000BF4FF0010C02E000BF4FF0010C1A
:10A860004DF804CD4FEA410C7FEA6C5C4FEA430C93
:10A8700018BF7FEA6C5C1BD001B050EA410C0CBFE2
:10A8800052EA430C91EA030F02BF90EA020F002044
:10A89000704710F1000F91EA030F58BF994208BFAB
:10A8A00090422CBFD8176FEAE37040F00100704768
:10A8B0004FEA410C7FEA6C5C02D150EA013C07D1BF
:10A8C0004FEA430C7FEA6C5CD6D152EA033CD3D00A
:10A8D0005DF8040B704700BF8446104662468C4604
:10A8E0001946634600E000BF01B5FFF7B7FF002837
:10A8F00048BF10F1000F01BD4DF808EDFFF7F4FF60
:10A900000CBF012000205DF808FB00BF4DF808EDEA
:10A91000FFF7EAFF34BF012000205DF808FB00BF0D
:10A920004DF808EDFFF7E0FF94BF012000205DF82F
:10A9300008FB00BF4DF808EDFFF7CEFF94BF0120E4
:10A9400000205DF808FB00BF4DF808EDFFF7C4FFDD
:10A9500034BF012000205DF808FB00BF4FEA410C26
:10A960007FEA6C5C02D150EA013C0AD14FEA430C09
:10A970007FEA6C5C02D152EA033C02D14FF0000046
:10A9800070474FF0010070474FEA410212F5001284
:10A9900015D211D56FF47873B3EB625212D94FEA26
:10A9A000C12343F0004343EA505311F0004F23FA10
:10A9B00002F018BF404270474FF00000704750EA65
:10A9C000013005D111F0004008BF6FF00040704722
:10A9D0004FF00000704700BF4A0011D212F500127C
:10A9E00011D20DD56FF47873B3EB62520ED44FEAE7
:10A9F000C12343F0004343EA505323FA02F0704767
:10AA00004FF00000704750EA013002D14FF0FF30A4
:10AA100070474FF0000070474FEA4102B2F1E04347
:10AA200024BFB3F5001CDCF1FE5C0DD901F0004C35
:10AA30004FEAC0024CEA5070B2F1004F40EB830085
:10AA400008BF20F00100704711F0804F21D113F1B1
:10AA50003872BCBF01F00040704741F480114FEAEA
:10AA60005252C2F11802C2F1200C10FA0CF320FA73
:10AA700002F018BF40F001004FEAC1234FEAD32390
:10AA800003FA0CFC40EA0C0023FA02F34FEA4303FA
:10AA9000CCE77FEA625307D150EA01331EBF4FF083
:10AAA000FE4040F44000704701F0004040F0FE409E
:10AAB00040F40000704700BFD0B500220B4B0646A3
:10AAC0000F46FFF7B1FCFFF787FF0446FFF732FCA4
:10AAD0000022074BFFF7A8FC02460B4630463946DA
:10AAE000FFF7EAFAFFF778FF2146D0BD0000F03DFE
:10AAF0000000F04110F8012B11F8013B012A28BF9A
:10AB00009A42F7D0D01A7047034613F8012B002A57
:10AB1000FBD1181A0138704738B5002200230446CB
:10AB20000D46FFF7F3FE28B920462946BDE8384018
:10AB3000FFF7C2BF204605F10041FFF7BDFF4042CD
:10AB400061EB410138BD00BF70B501F09BFD0025F0
:10AB5000054E064CA41BA408AC4200D170BD56F8AB
:10AB6000043B98470135F7E7CCFF3F02F8FF3F026F
:10AB700000F064B808B500F0B3F8BDE8084001F093
:10AB800039BD00F095BF00F0A1BF704710B501F0CE
:10AB9000BBFBDFED0F7AB4EEE70AF1EE10FA0D4CD5
:10ABA00005DD00220C4BC4E90023002010BDDFEDC1
:10ABB0000B7AB4EEE70AF1EE10FA02D50022084B48
:10ABC000F1E710EE100AFFF7D7FBC4E90001ECE74C
:10ABD0000000B442F8AC0710008056400000484224
:10ABE0000000494010B51049044601F07BFB18B144
:10ABF00000200E4B186010BD20460D4901F072FB7D
:10AC000008B10220F5E720460A4901F06BFB08B1C4
:10AC10000120EEE72046084901F064FB08B103205B
:10AC2000E7E74FF0FF30E6E7A4F93F02F4AC071086
:10AC3000A9F93F02AEF93F02B2F93F0210B5194837
:10AC400000F0D4F901F042FC4FF4165101F032FC4F
:10AC5000154B0021188801F087FD002309221349B4
:10AC6000134800F0FFFD134C00230922124913483A
:10AC700000F0F8FD002302221149124800F0F2FD15
:10AC80002046114A114900F0A9FF11492046114AF6
:10AC900000F0A4FF01F01AFCBDE810400E4901F0DD
:10ACA000DEB900BFECAE071000AD071008AF07100B
:10ACB000BBF93F0251CD3F02F8AC0710C1F93F028A
:10ACC000F4AC0710CCF93F02D1F93F0285BD3F0239
:10ACD0002DBD3F02DCF93F02EDF93F02000000000C
:10ACE0002DE9F8437C4B7D4D188801F07AFDA0F5E5
:10ACF0001B70FFF72FFB74A3D3E90023FFF794FB2E
:10AD0000C5E900014FF4FA7001F042FC01F0DEFBEE
:10AD1000734901F091F901F0D9FBD5E900670446C8
:10AD200032463B4630463946FFF718FEA8B36D4918
:10AD3000204601F081F9204601F085F901F0C6FBBB
:10AD4000694901F079F901F0C1FB684E05463468A4
:10AD5000002C80F2AA802D2101F072F961420A22B2
:10AD6000284601F086F9284601F06DF901F0AEFBA6
:10AD700001F069F93468002C40F09980FF222146E7
:10AD8000204600F0E6FA00210246594800F09EFAFB
:10AD9000BDE8F843564800F08FB927F000494FF05E
:10ADA000FF3230464946534BFFF7D8FD48B94FF0C4
:10ADB000FF32304649464F4BFFF7B2FD08B94E49C6
:10ADC000B6E74FF06042304639464C4BFFF7BCFDCA
:10ADD00008B14B49ACE74FF0604230463946494B29
:10ADE000FFF794FD0028F4D10022002330463946B5
:10ADF000FFF78CFD30B12D21204601F021F907F13C
:10AE000000431F4632A3D3E9002330463946FFF7FB
:10AE100055F90F460646FFF7DFFD0546FFF78AFAAC
:10AE20000B46024639463046FFF746F906460F46BE
:10AE30000A222946204601F01CF93349204601F038
:10AE4000FBF8002230463946304BFFF7EDFA064654
:10AE50000F46FFF799FD051E1BDB29460A222046F7
:10AE600001F007F92846FFF775FA02460B4630460F
:10AE70003946FFF721F90022244BFFF7D5FAFFF7F7
:10AE800083FD051E0BDB29460A22204601F0F1F85E
:10AE900051E72D21204601F0D3F86942DEE72D214C
:10AEA000204601F0CDF86942EEE7214657E7022C33
:10AEB0004FF0000202D1E121A52062E7032C0CBF74
:10AEC000FF21114610465CE7E0BE0E9C33A2B43F62
:10AED0007B14AE47E17A743F00AD071008AF07104E
:10AEE000FDF93F0206FA3F0212FA3F02F4AC0710E6
:10AEF000ECAE0710FFFFEF7F0AFA3F02FFFFEF41C2
:10AF00000EFA3F02FFFFEFC1FBF93F0200002440B1
:10AF100037B50F4B0F4C1D88D4E88F1F11F001017E
:10AF20000BD12046019100F017FE019928B10A4883
:10AF300001F0CAF8204600F01DFE2946074B064ADC
:10AF40001B78074803B0BDE8304000F040B800BFB0
:10AF5000ECAC0710E0AE0710E4AE0710F0AC071041
:10AF6000ECAE07100EB44FF0200C002300B58CB0EF
:10AF70000DAA52F8041BCDE904C3CDE900120392D7
:10AF8000016804AA322000F05FFC0CB05DF804EB0D
:10AF900003B0704738B50446C0680D4608B100F0EC
:10AFA00095FDA379062B0CBF0420032010FB05F0B0
:10AFB00080B2A08000F07CFDE06028B10021A28872
:10AFC00001F038FD658038BDA0806080FBE770B57A
:10AFD000002504461646C0E90355057083710572C5
:10AFE000FFF7D8FF2046666170BD00002DE9F74FDE
:10AFF00083790446022B4ED143691B78012B06D975
:10B0000029492A48FFF7AEFF03B0BDE8F08F002BB7
:10B010000CBF4FF011094FF0040948460CBF102730
:10B02000032701F061FB0646384601F05DFB012E67
:10B03000054633D1484601F0C1FB8246012D30D18F
:10B04000384601F0BBFB80464FF0010B184B60699E
:10B05000CDE9003BFF226B460021007800F0EAFAC0
:10B060005A461449606901F055F83146484601F0E6
:10B070007BFB2946384601F077FB5E4504D1484604
:10B080005FFA8AF101F081FB012D04D138465FFAA5
:10B0900088F101F07AFB01232370B5E74FF0000A35
:10B0A000CCE74FF00008CFE721FA3F023CAF071092
:10B0B00008000A0008AF2F00C368002B00F0FC80D6
:10B0C00070B583790446022B82B040F0EF80868809
:10B0D00006EB4606F036304600F0EAFC054600284E
:10B0E00000F0EB803246002101F0A4FC6288002AC7
:10B0F00000F0C780AC4602EBC202E1682A4491F935
:10B1000000300878002BB5BF4FF0D00E4FF0900EF6
:10B11000D823982310F0400F08BF734610F0200F7B
:10B1200014BF0320022003448CF8783008780CF117
:10B13000090C00F01003002B15BF4FF0690E4FF003
:10B14000490E6D234D2310F0080F08BF73468CF88D
:10B1500070300B78033113F0020F14BF3020202021
:10B1600013F0010F0CBF4FF0040E4FF0060E5B0101
:10B1700003F08003034473448CF8713011F9020C1E
:10B1800011F8023C0028B5BF4FF0D00E4FF0900EE2
:10B19000D820982013F0400F08BF704613F0200FFE
:10B1A00014BF0323022303448CF8723011F8020CFD
:10B1B00000F01003002B15BF4FF0690E4FF0490E41
:10B1C0006D234D2310F0080F08BF73468CF87330C1
:10B1D00011F802EC1EF0020F14BF302020201EF0E8
:10B1E000010F14BF062304234FEA4E1E0EF0800EFB
:10B1F00086449E448CF874E011F9013C11F8010C6E
:10B20000002BB5BF4FF0D00E4FF0900ED8239823EF
:10B2100010F0400F08BF734610F0200F14BF03203A
:10B22000022003448CF8753011F8010C00F0100373
:10B23000002B15BF4FF0690E4FF0490E6D234D23C3
:10B2400010F0080F08BF73468CF8763011F8010C27
:10B2500010F0020F14BF4FF0300E4FF0200E4301DC
:10B2600003F080037344DBB2C00703F1060E03F161
:10B2700004034CBF8CF877E08CF8773094457FF46A
:10B280003EAF606900F02AFF00223346294660691C
:10B29000009200F071FF606900F023FF284600F083
:10B2A00015FC00F077F8206102B070BD0449054834
:10B2B000FFF758FE02B070BD70470349F7E700BFC3
:10B2C00044FA3F023CAF071060FA3F024388F0B5F2
:10B2D0008B422DD9067AC2F30743C2F30724D5B2B5
:10B2E0003EB1734374437543C3F30723C4F3072488
:10B2F0002D0A90F806C0C768BCF1060F0CBF0426E3
:10B3000003264E43ACF1020CB919BCF1060F1DD84F
:10B31000DFE80CF0041C08040F040400BC554B705B
:10B320008D7005E0FE2B28BFFE23BB554D708C7041
:10B33000F0BDBB554C708D70037A120E13B9D2B2AA
:10B34000CA70F5E75A43C2F30722F9E7BB554C70C0
:10B35000E6E742EA012141EA0040704709B50448A6
:10B360000068044B03441B685B6C029309BD00003A
:10B37000E8AC07103000000009B504480068044B31
:10B3800003441B685B68029309BD0000E8AC07102A
:10B390000000000009B504480068044B03441B6822
:10B3A0001B69029309BD0000E8AC07100000000013
:10B3B00009B504480068044B03441B685B690293A9
:10B3C00009BD0000E8AC07100000000009B5044802
:10B3D0000068044B03441B685B68029309BD0000CE
:10B3E000E8AC07101400000009B504480068044BDD
:10B3F00003441B689B68029309BD0000E8AC07107A
:10B400001400000009B504480068044B03441B689D
:10B41000DB68029309BD0000E8AC071014000000CF
:10B4200009B504480068044B03441B681B69029378
:10B4300009BD0000E8AC07101400000009B504487D
:10B440000068044B03441B685B69029309BD00005C
:10B45000E8AC07101400000009B504480068044B6C
:10B4600003441B681B6B029309BD0000E8AC071086
:10B470001400000009B504480068044B03441B682D
:10B480001B6A029309BD0000E8AC07101000000021
:10B4900009B504480068044B03441B685B6A0293C7
:10B4A00009BD0000E8AC07101000000009B5044811
:10B4B0000068044B03441B689B6A029309BD0000AB
:10B4C000E8AC07101000000009B504480068044B00
:10B4D00003441B68DB6A029309BD0000E8AC071057
:10B4E0001000000009B504480068044B03441B68C1
:10B4F0001B6B029309BD0000E8AC071010000000B0
:10B5000009B504480068044B03441B685B6B029355
:10B5100009BD0000E8AC07101000000009B50448A0
:10B520000068044B03441B681B6C029309BD0000B8
:10B53000E8AC07101000000009B504480068044B8F
:10B5400003441B689B69029309BD0000E8AC071027
:10B550005400000009B504480068044B03441B680C
:10B560005B69029309BD0000E8AC07104C000000C5
:10B5700009B504480068044B03441B689B680293A8
:10B5800009BD0000E8AC07105000000009B50448F0
:10B590000068044B03441B685B69029309BD00000B
:10B5A000E8AC07105000000009B504480068044BDF
:10B5B00003441B681B69029309BD0000E8AC071037
:10B5C0001800000009B504480068044B03441B68D8
:10B5D000DB69029309BD0000E8AC07101800000009
:10B5E00009B504480068044B03441B681B6A0293B6
:10B5F00009BD0000E8AC07101800000009B50448B8
:10B600000068044B03441B685B6A029309BD000099
:10B61000E8AC07101800000009B504480068044BA6
:10B6200003441B689B6A029309BD0000E8AC071045
:10B630001800000009B504480068044B03441B6867
:10B64000DB6A029309BD0000E8AC07101800000097
:10B6500009B504480068044B03441B689B6B0293C4
:10B6600009BD0000E8AC07101800000009B5044847
:10B670000068044B03441B681B6C029309BD000067
:10B68000E8AC07101800000009B504480068044B36
:10B6900003441B685B6C029309BD0000E8AC071013
:10B6A0001800000009B504480068044B03441B68F7
:10B6B000DB68029309BD0000E8AC0710240000001D
:10B6C00009B504480068044B03441B681B690293D6
:10B6D00009BD0000E8AC07102400000009B50448CB
:10B6E0000068044B03441B685B69029309BD0000BA
:10B6F000E8AC07102400000009B504480068044BBA
:10B7000003441B689B69029309BD0000E8AC071065
:10B710002400000009B504480068044B03441B687A
:10B72000DB69029309BD0000E8AC071024000000AB
:10B7300009B504480068044B03441B681B6A029364
:10B7400009BD0000E8AC07102400000009B504485A
:10B750000068044B03441B689B6A029309BD000008
:10B76000E8AC07102400000009B504480068044B49
:10B7700003441B681B6C029309BD0000E8AC071072
:10B780002400000009B504480068044B03441B680A
:10B790001B68029309BD0000E8AC071034000000EC
:10B7A00009B504480068044B03441B685B680293B6
:10B7B00009BD0000E8AC07103400000009B50448DA
:10B7C0000068044B03441B681B69029309BD000019
:10B7D000E8AC07103400000009B504480068044BC9
:10B7E00003441B685B69029309BD0000E8AC0710C5
:10B7F0003400000009B504480068044B03441B688A
:10B800009B69029309BD0000E8AC071034000000FA
:10B8100009B504480068044B03441B68DB690293C4
:10B8200009BD0000E8AC07103400000009B5044869
:10B830000068044B03441B681B6A029309BD0000A7
:10B84000E8AC07103400000009B504480068044B58
:10B8500003441B685B6D029309BD0000E8AC071050
:10B860004800000009B504480068044B03441B6805
:10B870001B68029309BD0000E8AC07102C00000013
:10B8800009B504480068044B03441B685B680293D5
:10B8900009BD0000E8AC07102C00000009B5044801
:10B8A0000068044B03441B68DB6B029309BD000076
:10B8B000E8AC07102C00000009B504480068044BF0
:10B8C00003441B685B68029309BD0000E8AC0710E5
:10B8D0002800000009B504480068044B03441B68B5
:10B8E0009B68029309BD0000E8AC07102800000027
:10B8F00009B504480068044B03441B68DB680293E5
:10B9000009BD0000E8AC07102800000009B5044894
:10B910000068044B03441B681B69029309BD0000C7
:10B92000E8AC07102800000009B504480068044B83
:10B9300003441B685B69029309BD0000E8AC071073
:10B940002800000009B504480068044B03441B6844
:10B950009B69029309BD0000E8AC071028000000B5
:10B9600009B504480068044B03441B68DB69029373
:10B9700009BD0000E8AC07102800000009B5044824
:10B980000068044B03441B681B6A029309BD000056
:10B99000E8AC07102800000009B504480068044B13
:10B9A00003441B681B6B029309BD0000E8AC071041
:10B9B0002800000009B504480068044B03441B68D4
:10B9C0005B6B029309BD0000E8AC07102800000083
:10B9D00009B504480068044B03441B681B6C0293C0
:10B9E00009BD0000E8AC07102800000009B50448B4
:10B9F0000068044B03441B685B6C029309BD0000A4
:10BA0000E8AC07102800000009B504480068044BA2
:10BA100003441B685B6D029309BD0000E8AC07108E
:10BA20002800000009B504480068044B03441B6863
:10BA30009B6D029309BD0000E8AC071028000000D0
:10BA400009B504480068044B03441B685B68029313
:10BA500009BD0000E8AC07100800000009B5044863
:10BA60000068044B03441B685B69029309BD000036
:10BA7000E8AC07100800000009B504480068044B52
:10BA800003441B68D3F88830029309BDE8AC071063
:10BA90000800000009B504480068044B03441B6813
:10BAA000D3F89430029309BDE8AC071008000000F9
:10BAB00009B504480068044B03441B681B680293E3
:10BAC00009BD0000E8AC07100400000009B50448F7
:10BAD0000068044B03441B685B68029309BD0000C7
:10BAE000E8AC07100400000009B504480068044BE6
:10BAF00003441B689B68029309BD0000E8AC071073
:10BB00000400000009B504480068044B03441B68A6
:10BB10001B6B029309BD0000E8AC07100400000095
:10BB200009B504480068044B03441B681B6C02936E
:10BB300009BD0000E8AC07100400000009B5044886
:10BB40000068044B03441B685B6C029309BD000052
:10BB5000E8AC07100400000009B504480068044B75
:10BB600003441B689B6D029309BD0000E8AC0710FD
:10BB70000400000009B504480068044B03441B6836
:10BB8000DB6D029309BD0000E8AC07100400000063
:10BB9000002302480360FFF7E1BB00BF10AF0710AE
:10BBA0000022024BC3E900229A60704714AF0710CD
:10BBB00010B588B00446684600F066FB694604A8E4
:10BBC00000F085FB04A8A047044604A800F011FB80
:10BBD000684600F00EFB204608B010BD1FB50023DC
:10BBE0001024CDE90201019269461A461846ADF8C3
:10BBF0000230ADF80040FFF743FE04B010BD002254
:10BC000040681146FFF7BABE002240681146FFF7B0
:10BC1000D1BE00224068FFF7BFBE0022406881F01D
:10BC20000101FFF79DBE002340681A461946FFF741
:10BC300089BE002340681A461946FFF775BE0022E8
:10BC400040681146FFF762BE002240681146FFF7C8
:10BC500041BE002202214068FFF74ABE002340682F
:10BC60001A46FFF729BE00000322024B5A60024A1F
:10BC70001A60704720AF071088FA3F027047F8B586
:10BC8000064615460C468F18BC4206D0336830462F
:10BC90009B6814F8011B9847F6E72846F8BD002278
:10BCA000007CFFF7E7BB0021007CFFF7F1BB002120
:10BCB000007CFFF7FBBB0021007CFFF705BC0021E7
:10BCC000007CFFF70FBC10B504461421FEF75BFFA4
:10BCD000204610BD38B5044615464FF47A7300224D
:10BCE000C4E90123094B0846217423602946FFF764
:10BCF00015FCBF3008D16B69DB0705D56868FFF715
:10BD0000E5FEE868FFF7E2FE204638BDCCFA3F02C8
:10BD1000FF210022044B0120C3E9001264211A61B3
:10BD2000C3E90201704700BF28AF0710704710B584
:10BD300004461821FEF727FF204610BDF0B5037D0D
:10BD40000E46062B4FF000048DB000F1040712D010
:10BD500000F1080515F8011D0A22304600F089F9A6
:10BD6000AF42044419D0002CF4D02E21304600F00C
:10BD700067F90444EEE72F236A4639460A208DF816
:10BD80000040FFF7E7FB6846FEF7BEFE3368024659
:10BD900069463046DB689847044620460DB0F0BD42
:10BDA00010B50446044B1122002140F8043B00F07A
:10BDB00041FE204610BD00BFF8FA3F020346074A85
:10BDC00010B543F8042B01F1100251F8044B9142D5
:10BDD00043F8044BF9D10A781A7010BDF8FA3F0203
:10BDE00010B59DF8084044EA032343EA02420423C5
:10BDF00042EA01614160037510BD000007B5064BC2
:10BE00000360CB7800938B784A780978FFF7E8FFD6
:10BE100003B05DF804FB00BFF8FA3F02014B024A91
:10BE20001A6070473CAF071004FB3F0200234068D4
:10BE30001A46FFF741BD002202214068FFF758BDB6
:10BE4000002240681146FFF745BD002240681146B8
:10BE5000FFF75CBD002340681A461946FFF764BD32
:10BE6000002340681A461946FFF76CBD0021406860
:10BE7000FFF7AEBD00214068FFF7B8BD0022406863
:10BE800081F00101FFF76CBD00224068FFF784BD1F
:10BE9000002240681146FFF78DBD00224068114620
:10BEA000FFF76CBD00214068FFF7BCBD2DE9F043F2
:10BEB0000026984699B00D4614460746FFF770FFD6
:10BEC0001C22314611A8039600F0B4FDB8F1000F12
:10BED0002CD1402368681093049618B104A9C0B20D
:10BEE000FFF72AFB049B20460093002103AB10AA16
:10BEF000FFF74CFB044600284DD10246012168683B
:10BF0000FFF704FD0221804622466868FFF7FEFC29
:10BF100021468146039E002E3DD000293BD1736807
:10BF2000022B05D00A2B13D0F669F4E71D4BD1E79D
:10BF3000B8F1000FF8D071690AA804313C1D0BADAF
:10BF4000FFF75CFF0FCD0FC42B6841462370EBE772
:10BF5000B9F1000FE8D0102205A8746900F06AFD5D
:10BF6000062305AD8DF8243004F1080318342A4661
:10BF700018685968083303C2A3421546F7D105A9CA
:10BF80000AA83C1D0BADFFF719FF0FCD0FC42B689E
:10BF900049462370C8E70398FFF7EAFA384619B014
:10BFA000BDE8F08340000040033802289ABF024BEE
:10BFB00053F820000148704708FB3F0240AF0710CC
:10BFC00008B500224068FFF71FFDBDE80840FFF7F5
:10BFD000EBBF0000024B034A1A6000225A60704710
:10BFE00040AF07101CFB3F02F8B506460D46002483
:10BFF0008F18BD420CD0336830469B6815F8011B82
:10C000009847031E01DB1C44F3E7002C08BF1C46C5
:10C010002046F8BD13B50446084659B10191FEF714
:10C0200073FD0246204623680199DB6802B0BDE833
:10C030001040184702B010BD08B5FFF7EBFF08BD70
:10C0400003689B68184738B50D210546FFF7F8FFD0
:10C050000A2104462846FFF7F3FF204438BD38B5CF
:10C060000546FFF7D7FF04462846FFF7ECFF2044BC
:10C0700038BD0023012A98BF0A2230B58BB08DF855
:10C08000243009AC0D46B1FBF2F101FB125303F071
:10C09000FF03092B94BF30333733DBB2AA4204F8D5
:10C0A000013DEFD92146FFF7B5FF0BB030BD0000D1
:10C0B0000022014B9A60704748AF07100021FFF73C
:10C0C000E3BA0021FFF7D2BA10B504460846217042
:10C0D000FFF778FA00232046636010BD0078FFF771
:10C0E000F0BF0078FFF7EABF30B5002440081860C1
:10C0F0001868E5B2884206D90134082C02D04008FD
:10C100001860F5E70725024B5B5D137030BD00BF7B
:10C1100058FB3F0200232DE9F041044688B0007827
:10C120000E4617460293FFF7CCFF054600BB0146BB
:10C13000142203A894F8008000F07CFC0B232A460C
:10C14000404603A9ADF80C30FFF758FA07FB06F19B
:10C15000049802AB0DF107028DF80750FFF7C4FFFA
:10C1600020789DF80710FFF71FFA2078FFF7A6FF49
:10C17000029808B0BDE8F08130B587B00A9D04464A
:10C1800000950078FFF748FA3DB9207802A9FFF73B
:10C190005FFA9DF81430DB07F7D407B030BD10B557
:10C1A0000446FFF705F9E060236820465B6998477D
:10C1B000002808DAFFF7FCF8E368C01AA368984281
:10C1C000F2D34FF0FF3010BD2DE9F04107460C4689
:10C1D0000D468E18B542A5EB040807D03846FFF788
:10C1E000DEFF031E02DB05F8013BF3E74046BDE836
:10C1F000F08110B504460068FFF768FC204610BDCA
:10C2000010B50446006808B1FFF760FC0023C4E9DC
:10C210000133236010BD38B504460D460068013176
:10C22000FFF762FC10B1C4E90005012038BD10B56C
:10C230000368044623B143688B4201D3012010BD3B
:10C240002046FFF7E8FF0028F9D0A368002BF5D1BE
:10C2500022681370F2E737B50D4611460192044685
:10C26000FFF7E5FF019A28B92046FFF7C9FF2046EE
:10C2700003B030BD2946A260206800F0CEFB00214B
:10C280002268A368D154F2E7002313B50446C0E93D
:10C2900000338360037341B108460191FEF734FC1B
:10C2A000019902462046FFF7D6FF204602B010BD96
:10C2B000884210B5044605D00B682BB18A68194630
:10C2C000FFF7C9FF204610BDFFF79AFFFAE70023EA
:10C2D00010B50446C0E9003383600373FFF7E8FF3D
:10C2E000204610BD08B582683AB921B10878B0FA85
:10C2F00080F0400900E0012008BD006809B900781D
:10C30000F5E7FEF7F7FBF2E708B5006840B100F08B
:10C3100081FB51EC100BFEF77FFB00EE100A08BD0D
:10C320009FED010AFBE700BF000000000222002091
:10C33000044B1A60044B054AC3E900009A60FFF7FA
:10C340007FBB00BF64AF071058AF07100000FFFFAE
:10C35000024B1A68024B1A60704700BF04AD071009
:10C3600068AF071070474174704708B5007CFFF74D
:10C37000EDF920EAE07008BD08B5007CFFF7A0F9F0
:10C3800020EAE07008BD08B5007CFFF7B5F940EA87
:10C39000E07008BD08B5007CFFF7A0F940EAE07046
:10C3A00008BD007CFFF7B6B937B5457C04462DB112
:10C3B000207C03B0BDE83040FFF774B9007C0191E8
:10C3C000FFF7C4F900280199F2DC284603B030BD1C
:10C3D00010B504461421FEF7D6FB204610BD000020
:10C3E00010B54FF47A730446084611460022C4E99A
:10C3F0000123044B2074236001236374FFF7B4F915
:10C40000204610BD84FB3F02007CFFF791B94174C8
:10C4100070477047704708B50021007CFFF7EAF9C4
:10C4200040EAE07008BD08B50121007CFFF7E2F9A1
:10C4300040EAE07008BD08B5007CFFF7CDF920EABE
:10C44000E07008BD08B5007CFFF7B8F920EAE0709D
:10C4500008BD13B50446007C0191FFF7BDF9002823
:10C46000019901DC607C20B1207CFFF7D1F920EA42
:10C47000E07002B010BD007CFFF7D8B910B50446DB
:10C480001421FEF780FB204610BD000010B54FF4CC
:10C490007A73044608460021C4E90113044B207452
:10C4A0002360012311466374FFF76CF9204610BD29
:10C4B000B8FB3F020022007CFFF772B910B50446BA
:10C4C0001422002100F0B6FA204610BD10B588B045
:10C4D00003A8FFF7F3FF0C4CD4E88F1F11F0010104
:10C4E0000FD120460191FFF737FB019948B103AA0C
:10C4F0000648FFF7CBFF2046FFF73CFB044800F05F
:10C5000083FA024808B010BD6CAF071070AF071077
:10C51000B3D53F02002240681146FFF7F7B9002269
:10C5200040681146FFF72ABA002240681146FFF71B
:10C5300041BA00224068FFF72FBA0022406881F01C
:10C540000101FFF70DBA002340681A461946FFF7AC
:10C55000F9B9002340681A461946FFF7E5B90022E9
:10C5600040681146FFF7B6B9002202214068FFF784
:10C57000BFB9002340681A46FFF79EB90422024B58
:10C580005A60024A1A60704784AF0710ECFB3F0202
:10C590000021FFF763BA0000014B1860704700BF2D
:10C5A00008AD071008B50F4B43B1FFF78FFF0368C5
:10C5B0001B699847002801DD00E000BF0A4B43B12A
:10C5C00000F090F903681B699847002801DD00E03E
:10C5D00000BF064B0BB100F0CBF9054B0BB100F0DF
:10C5E000FDF908BD00000000000000000000000090
:10C5F0000000000008B5FFF7D5FFFEF7D9FE014B9C
:10C60000186008BD94AF07100548064A08B5121A0D
:10C61000054900F002FA054B054A1A6008BD00BF43
:10C6200000B4071004B407104CF05F0800B4071002
:10C630001E1C279A002307B51A466FF07701009356
:10C64000FFF728FA03B05DF804FB000007B5438844
:10C650000A2B08D0502B0BD1094B1B684BB103B0F0
:10C660005DF804EB1847FFF7E5FF03B05DF804FB46
:10C6700000231A466FF077010093FFF70BFAF4E7F7
:10C6800090AF0710002110B51148FFF757FA114B72
:10C690001A68114B9A420CBF012200220F4B1A70EC
:10C6A00001D0FFF7B1FFFEF767FE044600F0CAF9BC
:10C6B0000B4B13B1204600E000BF00210848FFF7F4
:10C6C000EDF8BDE8104000210648FFF7D5B900BFDE
:10C6D00039D73F0200B407101E1C279A8CAF0710F1
:10C6E00000000000EDD73F02FEF78CBE1B2837B5D7
:10C6F000044602D9002003B030BDA0F10F03022B85
:10C700000BD9012821D800F099F80021007CFEF710
:10C71000F7FE80F00100C0B2EDE7114DD5E88F1FA4
:10C7200011F001010BD128460191FFF715FA01998B
:10C7300028B10C48FFF7C8FC2846FFF71BFA094B45
:10C740001878FEF74DFF0028D4D1083C012C05D8FD
:10C7500000F0C8F8007CFEF7EBFFDAE70120CAE73B
:10C76000E0AE0710E4AE07101B2838B504460D46AE
:10C770000AD8FF2908D0FFF7B9FF28B1294620467B
:10C78000BDE83840FEF730BE38BD38B504460D462A
:10C79000FEF738FEFF2810D0062804D84D2323FAD0
:10C7A00000F0C30709D42046FFF7A0FF28B12946AF
:10C7B0002046BDE83840FEF733BE38BD10B504460C
:10C7C000FEF720FE031FDBB2012B08D92046FFF73E
:10C7D0008DFF20B12046BDE81040FEF72FBE00209F
:10C7E00010BD10B50446FFF781FF50B1032120466C
:10C7F000FEF7ECFD032804D12046BDE81040FEF70B
:10C800002BBE002010BD704738B50A4B04460360AC
:10C81000012309494361202000F0F4F820256060DD
:10C8200005492846A56000F0EDF8C4E90305204657
:10C8300038BD00BF1800010028FC3F0230B50E4D86
:10C8400087B0D5E88F1F11F0010411D12846FFF7FA
:10C8500083F968B16846FFF7D7FF6A462146074863
:10C86000FFF738FA2846FFF785F9054800F0CCF8BD
:10C87000024807B030BD00BF98AF07109CAF07104B
:10C88000A7D93F027047000038B5142504462A4650
:10C89000002100F0CFF82580402507492846258152
:10C8A000258200F0AFF804496060284600F0AAF83D
:10C8B000E060204638BD00BF28FC3F02704770474B
:10C8C00010B50446FFF7E0FF204610BD10B5044642
:10C8D000FFF7DAFF204610BD10B50446FFF7D4FF7E
:10C8E000204610BD30B50E4D87B0D5E88F1F11F032
:10C8F000010411D12846FFF72FF968B101A8FFF70D
:10C90000DFFF214601AA0748FFF76AFD2846FFF727
:10C9100031F9054800F078F8024807B030BD00BF93
:10C92000B0AF0710BCAF071025DA3F0210B50D4CB1
:10C9300086B0D4E88F3FDB0711D42046FFF70CF90F
:10C9400068B101A8FFF7C2FF012101AA0648FFF75D
:10C9500047FD2046FFF70EF9044800F055F802485D
:10C9600006B010BDB4AF0710D0AF07105FDA3F02BA
:10C9700010B5FFF7DBFF074B044653B1FFF744FD4B
:10C9800038B1236820461B699847002801DD00E084
:10C9900000BF10BD0000000010B50D4C86B0D4E8FB
:10C9A0008F3FDB0711D42046FFF7D6F868B101A806
:10C9B000FFF792FF022101AA0648FFF711FD20466A
:10C9C000FFF7D8F8044800F01FF8024806B010BD81
:10C9D000B8AF0710E4AF07105DDA3F0210B5FFF7FC
:10C9E000DBFF074B044653B1FFF70EFD38B1236858
:10C9F00020461B699847002801DD00E000BF10BDFC
:10CA000000000000FEF7BDB8002301461A46184694
:10CA1000FEF7BBB8002100F075BE0A44431E9142E8
:10CA200000D1704710B511F8014B914203F8014F46
:10CA3000F9D110BD02440346934200D1704703F878
:10CA4000011BF9E738B5104B04461D68AB6BB3B951
:10CA50001820FFF72DF80246A86320B90B4B42219E
:10CA60000B48FFF75DF80B490B4BC0E900130B4B6C
:10CA7000002183600B2383810120C2E90401AB6B99
:10CA800000221C615A6138BD08AD071029FC3F0225
:10CA900040FC3F020E33CDAB34126DE6ECDE0500F8
:10CAA00010B57AB103460139841813F8010B11F857
:10CAB000012F904201D1A34201D1801A10BD00285C
:10CAC000F3D1FAE71046F9E770B504460D4616466D
:10CAD00045EC104B01F01AFD51EC100B7EB1C5F383
:10CAE0000A53C3F16B03002B09DD1B05002403F17E
:10CAF0007F55224605F540152B46FDF795FC70BD88
:10CB00002DE9F04F1F460023044688464FF0000AE7
:10CB10004FF0000B2DED028B9DB018939F4B13929D
:10CB20001B6818460593FDF7EFFF0546CDF85C80BE
:10CB3000179B1A782B2A4ED03BD80D2A34D8082AB6
:10CB400034D8002A3ED000230A93179E3378302B26
:10CB500040F0B080737803F0DF03582B68D10A9B54
:10CB600017A902972046019318AB8D4A009319AB81
:10CB700000F03AFE10F00707054605D0062F2CD12D
:10CB80000136002317960A93139B002B40F08E85E5
:10CB90000A9BEBB152460BF1004343EC102B1DB046
:10CBA000BDEC028BBDE8F08F202ACCD10133179366
:10CBB000BEE72D2AC7D101220A925A1C17925B7830
:10CBC000002BC2D1139BCDF85C80002B40F06C850C
:10CBD00052465B46E1E70022EEE7189A3AB135216A
:10CBE0001AA801F09CFD1899204601F057F9013F61
:10CBF000042F06D8DFE807F00A0314170A00DDE95E
:10CC00001AAB2807C0D54BF0004BBDE7DDE91AA3EE
:10CC1000199A23F4801302F2334243EA025BF0E7ED
:10CC2000DFF880B1EDE76FF0004B4FF0FF3AE8E737
:10CC3000179B5A1C17925B78302BF9D0002BA3D08E
:10CC400001234FF0000904930A22179B4F46CDF8A9
:10CC50001C90089317980678A6F13003D9B20929D9
:10CC60002AD92A460599FFF71BFFA0B300203246B8
:10CC70003D4603460590652A01D0452A18D11DB9C5
:10CC8000049A02439ED00025DDF85C8008F1010281
:10CC9000179298F801202B2A75D02D2A7BD04FF0BF
:10CCA000000CA2F13001092940F28280CDF85C80AD
:10CCB00000269DE00023C4E7082F00F1010007F1E2
:10CCC0000107D4BF079902FB09391790DCBF02FBAB
:10CCD00001330793BEE7179B5A1917925A5D002F2D
:10CCE00036D03D460590A2F13003092B12D901231D
:10CCF000C1E7179B01305A1C17925A78302AF8D096
:10CD0000A2F13103082B00F2D68405900020179B76
:10CD100005460893303A00F1010313D0059900EB62
:10CD2000050E19442B4605910A21734512D12B1883
:10CD30000135082B05441CDC07990A2303FB01235A
:10CD400007930023179A1846511C17915278CAE787
:10CD50003846D3E7082B04DC079E4E430796013381
:10CD6000E3E703F1010CBCF1100FD8BF01FB09F997
:10CD7000F5E7102DDCBF0A2303FB0929E1E70023B7
:10CD8000059301237CE74FF0000C08F10202179293
:10CD900098F8022085E74FF0010CF6E764FE3F02A9
:10CDA000A0FC3F020000F07F179A511C17915278A7
:10CDB000302AF9D0A2F1310108293FF679AFA2F16A
:10CDC000300E179A0692179A511C17915278A2F1B9
:10CDD0003006092E37D9069E891B44F61F6608299E
:10CDE00002DC7645A8BF7646BCF1000F00D0764243
:10CDF000002D4DD1049901437FF4C6AE002B7FF482
:10CE0000E1AE692A27D024DC492A24D04E2A7FF4B7
:10CE1000D9AE9F4917A800F03FFF00283FF4D2AEDB
:10CE2000179B1B78282B2DD11AAA9A4917A800F016
:10CE300047FF052826D11B9BDDF868A043F0FF4B78
:10CE40004BF4E00BA0E60A2101FB0E2EAEF1300EF2
:10CE5000B9E76E2ADBE7904917A800F01DFF00280C
:10CE60003FF4B0AE179B17A88C49013B179300F015
:10CE700013FF10B9179B01331793DFF830B24FF04F
:10CE8000000A81E6864801F09FFC5BEC10AB7BE674
:10CE9000059B002F08BF2F46102D0798A6EB030314
:10CEA000A846A8BF4FF010080693FDF743FA092DD6
:10CEB00082468B4613DD7B4B03EBC80353E91223F9
:10CEC000FDF7B2FA82468B464846FDF733FA024632
:10CED0000B4650465946FDF7F1F882468B460F2D1A
:10CEE00038DC069B002B3FF44FAE24DD162B0BDC09
:10CEF0006C49524601EBC3015B46D1E90001FDF7E5
:10CF000093FA82468B463FE6C5F12503069A934283
:10CF100020DBC5F10F05634C52465B4604EBC501AF
:10CF2000D1E90001FDF780FA069B5D1B04EBC50407
:10CF3000D4E90023E3E7069B16330BDB059B504641
:10CF400059469E1B574B03EBC606D6E90023FDF757
:10CF500095FBD6E7A5EB0808069B9844B8F1000FAF
:10CF600074DD18F00F030AD04E49524601EBC3019D
:10CF70005B46D1E90001FDF757FA82468B4638F04F
:10CF80000F084FD0B8F59A7F22DD00252E46079571
:10CF900005952223DFF814B14FF0000A2360079BA8
:10CFA000002B3FF4F1AD1899204600F077FF05996A
:10CFB000204600F073FF3146204600F06FFF0799CE
:10CFC000204600F06BFF2946204600F067FFDBE5B6
:10CFD000354B4FEA2818504659460493002399468A
:10CFE000B8F1010F21DC0BB182468B462E4BABF121
:10CFF000547B524603EBC9095B46D9E90001FDF7B2
:10D0000013FA2A4B0A4682460B4029498B42BCD868
:10D01000A1F580118B4286BFDFF898B04FF0FF3A40
:10D0200002F1547B0023049383E018F0010F05D034
:10D03000049BD3E90023FDF7F7F90123049A09F1D2
:10D0400001094FEA680808320492C9E7EAD0C8F13A
:10D05000000818F00F020AD0124B5046594603EB55
:10D06000C203D3E90023FDF709FB82468B465FEA42
:10D070002818D7D0B8F11F0F1EDD00252E460795C2
:10D08000059522234FF0000A4FF0000B236086E73E
:10D0900007FA3F02B4FC3F020BFA3F0299FC3F0241
:10D0A00005FA3F02F8FE3F02D0FE3F020000F07F8B
:10D0B0000000A07CFFFFEF7F18F010035046594698
:10D0C000DFF8A89318BF6A230493002318F0010F18
:10D0D00004D0D9E90023FDF7A7F901235FEA680826
:10D0E00009F10809F2D10BB182468B46049BC3B10A
:10D0F000CBF30A525946C2F16B03002B11DD1F2BF3
:10D1000040F32181342B4FF0000ADBBFC2F14B0208
:10D110004FF0FF334FF05C7B03FA02F2D8BF02EA14
:10D12000010B0022002350465946FDF7E5FB00287D
:10D13000A3D1079B3A460899204600932B4600F05E
:10D1400017FF079000283FF420AF059B00259E1B8A
:10D15000069B002BB4BF334600232E460C93069B40
:10D1600023EAE3731293079B2046596800F056FEAA
:10D17000059000283FF40DAF079B0C301A6903F1AE
:10D180000C0102329200FFF748FC1AAA19A92046A6
:10D190004BEC10AB01F034FA18904BEC18AB0028B4
:10D1A0003FF4F7AE0121204600F07CFF0646002840
:10D1B0003FF4EFAE199B0499002BA3EB0108A9BF24
:10D1C0000C9A129A03EB0209129FB8BFD71A1A9A47
:10D1D000A14B9044B8BFDDF83090C2F1360208F19F
:10D1E000FF38984580F2C380A3EB080301211F2B71
:10D1F000A2EB030200F3AE8001FA03F30D930023C8
:10D20000089309EB0208049B1744C1451F444B4691
:10D21000A8BF4346BB42A8BF3B46002BC2BFA8EBFA
:10D220000308FF1AA9EB03090C9B002B17DD3146FD
:10D230001A46204600F0F4FF064600283FF4A9AE47
:10D240000146189A204600F043FF0B9000283FF457
:10D25000A0AE1899204600F021FE0B9B1893B8F160
:10D26000000F00F38980069B002B08DD129A2046F0
:10D27000059900F0D5FF059000283FF48AAE002FF5
:10D2800008DD3A460599204601F024F8059000286B
:10D290003FF47FAEB9F1000F08DD31464A46204623
:10D2A00001F018F8064600283FF473AE059A2046B0
:10D2B000189901F09BF8054600283FF46AAEC36850
:10D2C00031460B930023C36001F074F800285DDA47
:10D2D0000B9B53EA0A037FD1CBF31303002B7BD1C3
:10D2E0002BF000431B0D1B05B3F1D66F74D96B698E
:10D2F00013B92B69012B6FDD29460122204600F06E
:10D30000E9FF3146054601F055F8002864DD04992F
:10D310005B46524A00297FD002EA0B01B1F1D66F79
:10D320007ADCB1F15C7F7FF7ACAE4D4B504659468D
:10D330000022FDF779F80B4682468B46034304BF73
:10D34000222323602FE64FF0FF3202FA03F303EAB1
:10D350000A0AE6E6C8F17F480D9108F57F0808F54E
:10D360007B4808F1E20801FA08F3089349E7002333
:10D37000089301230D9344E742461899204600F094
:10D38000A9FF189000287FF46EAF02E65F466FD1C8
:10D390000B9ACBF3130342B3324A934228D1049B36
:10D3A0005146EBB12D4B4FF0FF323B40B3F1D46F00
:10D3B00019D81B0DC3F16B0302FA03F3994217D17D
:10D3C000294B9F4202D101313FF4E3AD234B4FF093
:10D3D000000A3B4003F5801B049B002BA5D1E2E52E
:10D3E0004FF0FF33EAE71346E8E753EA0A038ED02B
:10D3F000089BDBB13B42EFD00B9B5046049A594649
:10D40000C3B1FFF761FB02460B4651EC180BFCF76A
:10D4100055FE82468B46DFE713404FF0FF3AA3F5F7
:10D4200080136FEA135B6FEA0B5BD5E70D9B13EA82
:10D430000A0FE0E7FFF748FB02460B4651EC180BDA
:10D44000FCF73AFE0022002382468B46FDF754FA91
:10D450000028C1D015E600BF02FCFFFF0000F07FEE
:10D4600000005039FFFF0F00FFFFEF7FC8FC3F02B5
:10D470003146284601F020F900224FF0804310EE9B
:10D48000100A59EC108B4946FDF74AFA00287AD069
:10D490000B9B002B4AD00022934B4FF00008DFF883
:10D4A0004892CDE90823914B3B400D930D9A904B48
:10D4B0009A4240F0B080A7F1547BDDE908014BECC3
:10D4C00010ABCDE9080101F021F8DDE9080153ECCA
:10D4D000102BFCF7A9FF52465B46FCF7EFFD0B460D
:10D4E00082498246834A1940914260D918EE903AA7
:10D4F00002F15472934204D118EE103A01333FF412
:10D5000048ADDFF8FCB14FF0FF3A1899204600F023
:10D51000C5FC0599204600F0C1FC3146204600F0CC
:10D52000BDFC2946204600F0B9FC1CE6BAF1000F0C
:10D530001BD1CBF31303F3B900226B4B4046494692
:10D54000FDF7E4F9D0B94046494600226A4BFCF7A2
:10D550006BFF8046894609F10043CDF85080159352
:10D56000DDE91423CDE908239DE7BAF1010F02D1CB
:10D57000002F3FF486AD0022604B8EE74FF000088D
:10D58000DFF87491E7E75C4B404649460022FCF720
:10D590004BFF0B9B8046894633B901F100430E9047
:10D5A0000F93DDE90E23DDE7CDE90E89F9E703F1FD
:10D5B000547B049B002BA8D12BF000430D9A1B0D2C
:10D5C0001B059A42A1D140464946FDF7A5FAFCF752
:10D5D000FDFE02460B4640464946FCF76DFDCBF387
:10D5E00013030B9A804643EA0A038946134355D036
:10D5F00035A3D3E90023FDF789F900287FF4D3ACE4
:10D600004046494632A3D3E90023FDF79DF900289F
:10D610003FF47BAFC7E4049B33B30D9BB3F1D46FEE
:10D6200022D8404649462CA3D3E90023FDF778F9D8
:10D63000A0B149464046FDF7CFF9012838BF012087
:10D64000FCF778FE0B9B8046894623BB01F1004323
:10D6500010901193DDE91023CDE90823099B0D9A61
:10D6600003F1D6639B1A0993B0EE480AF0EE680AFC
:10D67000DDE90801CDE9080100F048FFDDE9080116
:10D6800053EC102BFCF7D0FE53EC182BFCF716FDD7
:10D6900082468B468DE7CDE91089DBE710A3D3E9FD
:10D6A0000023FDF733F9B2E700230A93179B139A7F
:10D6B0001360FFF76DBA652A3FF461AB452A3FF46A
:10D6C0005EAB0123FFF796BB9535A094FFFFDF3FCC
:10D6D00035E5AF350000E03F0000C0FFFFFFDF4150
:10D6E0009535A094FFFFCF3F0000F03F0000F07F92
:10D6F0000000E07FFFFF9F7C0000E03F0000F0BFE4
:10D70000FFFFEF7F0A4601460248034B0068FFF720
:10D71000F7B900BF08AD071070AD071003694A11D3
:10D72000B3EB611F2DE9F04300F1140445DD11F066
:10D730001F0104EB830604EB82050CD100F11007F6
:10D740002946B14234D39B1AEA1E9B00964238BF49
:10D750000023234415E054F82270C1F1200805F19C
:10D76000040EA146CF407645F44615D89A1A0135E5
:10D770009200043AAE4238BF0022A318A75007B166
:10D7800004331A1BA3424FEAA20208BF002302611E
:10D7900008BF4361BDE8F083DCF800C00CFA08FC68
:10D7A0004CEA070749F8047B5EF8047BCF40DAE7D0
:10D7B00051F804CB47F804CFC3E72346E1E7A0F1D3
:10D7C0003003092B02D82038C0B27047A0F16103A2
:10D7D000052B01D84738F7E7A0F14103052B01D805
:10D7E0002738F1E7002070472DE9F04F2DED028B2F
:10D7F00089B008EE100A8B4690460493B24B1B6822
:10D8000018460193FDF780F9019BDBF80020824662
:10D81000034413F8013C0593931CC2F1FF2202F567
:10D820007F02FE32D1181F4613F8010B00913028F9
:10D83000F8D0FFF7C4FF0446002839D152460199B9
:10D840003846FFF72DF90546002867D117F80A007A
:10D8500007EB0A06FFF7B3FF002861D033461878BC
:10D860001F4601333028FAD0FFF7A9FFB0FA80F441
:10D8700001233546640900933A4616460132307852
:10D88000FFF79DFF0028F8D1524601993046FFF777
:10D8900007F980B94DB906EB0A052A46164601324A
:10D8A0003078FFF78CFF0028F8D1AD1BAD0004E005
:10D8B00000242546E0E7002DF7D1337803F0DF039D
:10D8C000502B3BD173782B2B2CD02D2B2ED0711CB1
:10D8D0004FF000090878FFF772FF431EDBB2182BE8
:10D8E0002CD8A0F1100211F8010FFFF768FF431EBA
:10D8F000DBB2182B1DD9B9F1000F00D052421544EC
:10D90000CBF80010E4B1009B002B14BF00270627C2
:10D91000384609B0BDEC028BBDE8F08F3E46254687
:10D920000124CAE74FF00009B11CD3E74FF0010909
:10D93000FAE70A2303FB0202103AD4E73146DFE795
:10D94000F31B2146013B072B0BDC18EE100A00F0FD
:10D9500065FA044640B95D4B0246DE215C48FEF79D
:10D96000DFF801315B10EEE700F114094FF0000B16
:10D97000CAF10103CDF80890CDF800B00693B74284
:10D9800040D30298009B40F8043BA0EB09008010B4
:10D9900046012061184600F035FB301AD8F80060C7
:10D9A000B04263DD871B2046394600F0DBFE82462D
:10D9B000A8B17B1E4FF0010A591103F01F0259F85C
:10D9C00021100AFA02F20A4209D0534505DDB91EB8
:10D9D000204600F0C7FE002845D14FF0020A3D4422
:10D9E00039462046FFF79AFED8F80830AB424CDAA9
:10D9F000214618EE100A00F051FA0023149AA327CA
:10DA0000136085E7731E059A039316F8013C934251
:10DA100019D0BBF1200F07D1029B009A43F8042BC9
:10DA2000029300239B46009316F8010CFFF7C7FEF4
:10DA300000F00F00009B00FA0BF00BF1040B034306
:10DA40000093039B0DE0039B069A1344BB42E0D373
:10DA50001846524601990793FFF722F8079B0028C2
:10DA6000D7D11E468BE74FF0030AB8E70ADA371A18
:10DA7000214618EE100A3A46ED1B00F02BFC044636
:10DA800000F114094FF0000AAEE7D8F80400A842EC
:10DA900072DD451BAE4235DCD8F80C30022B29D0A4
:10DAA000032B2BD0012B1BD1AE4219D1012E11D14A
:10DAB000D8F804306227049A136001232361C9F85F
:10DAC0000030149B1C6023E764FE3F02F1FD3F021F
:10DAD00002FE3F02711E204600F044FE0028E7D1FE
:10DAE000214618EE100A00F0D9F90023149A5027A5
:10DAF00013600DE7159B002BF2D1D9E7159B002B86
:10DB0000D6D1EDE76F1EBAF1000F32D127B13946F9
:10DB1000204600F027FE82467B11012107F01F07F7
:10DB2000204659F82330761B01FA07F729461F4291
:10DB30004FF0020718BF4AF0020AFFF7EFFDD8F8CE
:10DB40000450BAF1000F48D0D8F80C30022B15D091
:10DB5000032B17D0012B09D11AF0020F06D0D9F8E8
:10DB600000004AEA000A1AF0010F0ED147F0100730
:10DB700033E04FF0010ACFE70127E2E7159BC3F13D
:10DB800001031593159B002BF0D0D4F810B004F1CD
:10DB900014034FF0000C4FEA8B0A03EB8B0118467D
:10DBA00053F8042BB2F1FF3F1CD001320260022F68
:10DBB00004F114033FD1D8F80020013AB2420AD14F
:10DBC0007111012206F01F0653F8213002FA06F601
:10DBD0001E4218BF174647F02007149B1C60049B89
:10DBE0001D6095E6994243F804CCD8D8A3689B45BC
:10DBF00019DB616818EE100A013100F00FF9814657
:10DC000018B91B4B02468421A8E6226904F10C01D5
:10DC10000C3002329200FEF700FF21464C4618EE0F
:10DC2000100A00F03BF923695A1C04EB83032261BC
:10DC300001225A61BBE722695A450BDD01212046CA
:10DC4000FFF76CFD0135D8F80830AB42FFF6D0AED7
:10DC50000127C0E716F01F06FAD05344C6F120068C
:10DC600053F8040C00F0CEF9B042E7DBF0E700BF58
:10DC7000F1FD3F02C2F10802920070B5C2F1200628
:10DC80004368046803FA06F5D3402C43046040F867
:10DC9000043F8842F4D370BD0368013330B511F8F6
:10DCA000014B14B90360012030BD13F8012BA2F120
:10DCB0004105192D98BF2032A242F0D00020F3E791
:10DCC0000B682DE9F04F5E1113F01F034FF00005B4
:10DCD00087B002EB860690468246026818BF04367B
:10DCE000AB460193371F46F8045C0295B9463C46A3
:10DCF000531C5178039341B3084605920491FFF7F2
:10DD00005EFD00284FD10499059A202918D8029B5E
:10DD10009B4513DD4C4506D2072D04DC2A464946B7
:10DD20002046FFF7A7FF44454FD90023A4F104097B
:10DD3000CDF808B044F8043C1D464C46039AD7E79A
:10DD4000292955D10232CAF80020BBF1000F4FD06B
:10DD50004C4506D2072D04DC2A4649462046FFF7EB
:10DD600089FF444533D9A8F10402234653F8041B24
:10DD70009F4242F8041FF9D23B1B033E01340022AC
:10DD800023F003030433B44288BF0423434443F81D
:10DD9000042B9F42FBD23B681BB9474526D1012388
:10DDA0003B60052025E001350BF1010B082D05DD59
:10DDB0004445C3D90023043C01252360226800F0B8
:10DDC0000F0040EA02122260B8E70825B6E7019B7F
:10DDD000002BE0D04FF0FF32C3F1200322FA03F30F
:10DDE00056F8042C1A4046F8042CD4E7043FD2E736
:10DDF000042007B0BDE8F08F82B001B901A942B19B
:10DE00004BB113780B601278101E18BF012002B0BE
:10DE100070471046FBE76FF00100F8E770B5466AFF
:10DE200004460D4676B91020FDF742FE02466062B8
:10DE300020B9184B66211848FDF772FEC0E901664B
:10DE40000660C660666AF36883B1636ADB6853F88C
:10DE50002500B8B90121204601FA05F6721D92008D
:10DE600000F0A1FC60B1C0E901560EE021220421BE
:10DE7000204600F098FC636AF060DB68002BE4D178
:10DE8000002070BD026843F825200023C0E9033359
:10DE9000F7E700BF29FC3F0276FE3F0270B5466AF5
:10DEA00005460C4676B91020FDF702FE0246686270
:10DEB00020B9094B8A210948FDF732FEC0E9016605
:10DEC0000660C6603CB16B6A6268DB6853F822107A
:10DED000216043F8224070BD29FC3F0276FE3F02DC
:10DEE0002DE9F04101F1140C07460C461E460D6960
:10DEF0000020DCF80030013099B2854202FB01615C
:10DF00004FEA13464FEA114389B202FB063301EB95
:10DF100003414FEA13464CF8041BEADC0EB3A36836
:10DF2000AB4219DC616838460131FFF777FF804664
:10DF300028B902460C4BB5210C48FDF7F1FD2269CA
:10DF400004F10C010C3002329200FEF766FD21460E
:10DF500044463846FFF7A2FF04EB850301355E61B6
:10DF600025612046BDE8F081F1FD3F0276FE3F02CB
:10DF70002DE9F84315461F46092208330C4606468C
:10DF8000002193FBF2F301229A4209DB3046FFF7AE
:10DF900045FF40B90246194BCE211948FDF7C0FD97
:10DFA00052000131F0E7089B092D43614FF0010356
:10DFB000036116DD04F109092C44C84618F8013B39
:10DFC00001460A223046303BFFF78AFFA045F5D1D3
:10DFD000A5F108044C442D1B6319BB4204DBBDE8CA
:10DFE000F8830A340925F6E714F8013B01460A22B2
:10DFF0003046303BFFF774FFEEE700BFF1FD3F0214
:10E0000076FE3F02030C1B04D3B90004102310F06A
:10E010007F4F04BF0002083310F0704F04BF0001AF
:10E02000043310F0404F04BF80000233002805DBAA
:10E0300010F0804F03F1010308BF202318467047FA
:10E040000023E4E70368014613F007020BD0DA0768
:10E0500023D4980747BF5B0801209B0802204CBFD0
:10E060000B600B60704798B2A8B91B0C1020DAB295
:10E070000AB908301B0A1A0704BF1B0904309A07A3
:10E0800004BF9B080230DA0703D45B0800F10100EB
:10E0900005D00B6070471046E9E70020704720204C
:10E0A0007047000010B50C460121FFF7B7FE02468D
:10E0B00028B9054B4FF4A0710448FDF731FD012349
:10E0C0004461036110BD00BFF1FD3F0276FE3F02D7
:10E0D0002DE9F04F91460A690C4685B0D9F8103009
:10E0E0009A42BEBF0B464C4699462769A368D9F8A9
:10E0F00010A0616807EB0A06B342B8BF0131FFF711
:10E100008DFE30B90246444B40F25D114348FDF7A5
:10E1100007FD00F11405002205EB86082B46434558
:10E1200021D304F1140304F1150103EB870709F16E
:10E13000140303EB8A0202923A1B153A22F00302FF
:10E1400004328F4238BF04220192029A03939A420A
:10E150000CD8002E03DD58F8043D002B5AD0066180
:10E1600005B0BDE8F08F43F8042BD8E7B3F800A062
:10E17000BAF1000F24D004F1140EA9464FF0000CA0
:10E180005EF8042BD9F800101FFA82FB774589B29C
:10E190000AFB0B114FEA124BD9F8002061444FEAF9
:10E1A000124C0AFB0BC202EB114289B24FEA124C2D
:10E1B00041EA024149F8041BE2D8019A45F802C03D
:10E1C000039A0433B2F80290B9F1000F20D0296805
:10E1D00004F1140CAE464FF0000ABCF800B089B24E
:10E1E000BEF8022009FB0B22924441EA0A414EF894
:10E1F000041B5CF8042BBEF80010120C674509FBE9
:10E20000021101EB1A414FEA114AE6D8019AA950CE
:10E2100004359AE7013E9CE7F1FD3F0276FE3F029E
:10E220002DE9F843154612F0030206460F4607D0C3
:10E23000013A254C002354F82220FFF751FE0746EF
:10E24000AD103DD0746A7CB91020FDF731FC024658
:10E25000706228B91D4B4FF4D7711D48FDF760FC63
:10E26000C0E901440460C460D6F82480D8F80840AE
:10E270004CB940F271213046FFF714FF00230446E9
:10E28000C8F8080003604FF00009EB070AD53946CB
:10E2900022463046FFF71CFF804639463046474647
:10E2A000FFF7FCFD6D100BD0206838B922462146DF
:10E2B0003046FFF70DFF2060C0F800900446E4E709
:10E2C0003846BDE8F88300BFC0FF3F0229FC3F028B
:10E2D00076FE3F022DE9F0470C46074691464FEA8D
:10E2E000621A2369496803EB6218A36808F1010602
:10E2F000B3420BDB3846FFF791FD054648B90246AD
:10E300002A4B40F2D9112A48FDF70AFC01315B0083
:10E31000EEE7002300F1140100F110021846534506
:10E3200037DB2AEAEA7A04F11403206919F01F099D
:10E3300001EB8A0103EB80002FD0C9F1200E8A4641
:10E340004FF0000C1A6802FA09F242EA0C024AF88D
:10E35000042B53F8042B984222FA0EFCF2D8031B2C
:10E3600004F11502153B23F003030433904238BF38
:10E37000042341F803C0BCF1000F01D008F10206EC
:10E38000013E384621462E61FFF788FD2846BDE84C
:10E39000F087013342F8040FC1E7043953F8042B26
:10E3A000984241F8042FF9D8EAE700BFF1FD3F0297
:10E3B00076FE3F02026930B50C69121B0ED100F1E6
:10E3C0001403143103EB840001EB840150F8045D65
:10E3D00051F8044DA54203D005D30122104630BDAB
:10E3E0008342F3D3FAE74FF0FF32F7E72DE9F84F16
:10E3F0000C460646114692462046FFF7DBFF051EF7
:10E4000010D129463046FFF709FD30B93D4B024691
:10E4100040F232213C48FDF783FB0123C0E904357B
:10E42000BDE8F88FA4BF5346A2463046A8BF0025DA
:10E43000DAF80410ACBF1C460125FFF7EFFC20B949
:10E44000304B02464FF41071E4E7DAF8107004F133
:10E450001409266900F11408C5600AF114050AF1CF
:10E46000100209EB860605EB870EC2464FF0000C42
:10E4700052F804BF59F8043B1FFA8BF14E458C4407
:10E4800099B24FEA1343ACEB0101C3EB1B4303EB1F
:10E49000214389B24FEA234C41EA03434AF8043B43
:10E4A000E6D8331B1534153B23F003030433A6428F
:10E4B00038BF04231D4443442C461E4674450ED3E6
:10E4C0000EF10302521B033D22F00302AE4538BF9A
:10E4D00000221A4452F8043D8BB10761A0E754F8BA
:10E4E000048B1FFA88F26244111492B201EB1841B6
:10E4F00042EA01424FEA214C46F8042BDEE7013F95
:10E50000E8E700BFF1FD3F0276FE3F0282B013490B
:10E510008DED000B019B1940A1F15071002905DD23
:10E5200000220B4643EC102B02B0704749420022F8
:10E530000023B1F1A07F4FEA215004DA4FF400210B
:10E5400041FA00F3EEE7A0F114011E29D6BF4FF007
:10E550000040012120FA01F10A46E3E70000F07FC4
:10E56000F8B5056900F1140707EB850555F8044C6B
:10E570002E1F2046FFF746FDC0F120030A28DFF8D2
:10E580007CC00B6015DCC0F10B0EB74200F115002A
:10E5900024FA0EF104FA00F041EA0C0334BF55F8F6
:10E5A000081C002121FA0EF140EA010243EC102B75
:10E5B000F8BDB7423ABFA5F1080655F8081C00217E
:10E5C0000B3817D0C0F1200C04FA00F5BE4201FA56
:10E5D00000F021FA0CF445EA04058CBF56F8044C0F
:10E5E000002445F07F5324FA0CF443F4401340EA2E
:10E5F0000402DBE744EA0C030A46D7E70000F03FD9
:10E600002DE9F74389460121904657EC106BFFF73F
:10E6100005FC044630B90246254B40F20A31254834
:10E62000FDF77EFAC7F30A55C7F3130335BB002E77
:10E63000019328D068460096FFF704FD009900B3C7
:10E64000019AC0F1200302FA03F3C2400B43019286
:10E650006361019B002BA36114BF0222012222618E
:10E66000D5B1A5F233450544C0F13500C9F80050D5
:10E67000C8F80000204603B0BDE8F08343F48013DF
:10E68000D5E76161E5E701A8FFF7DCFC019B01220A
:10E69000203063612261E3E7A0F2324004EB8203A1
:10E6A000C9F800001869FFF7ADFCC0EB4210DFE7C6
:10E6B000F1FD3F0276FE3F022DE9F74F8846814685
:10E6C0006946FFF74DFF01A9404655EC104BFFF797
:10E6D00047FFD9F81030D8F810202F46A3EB020CD2
:10E6E000DDE9003251EC100B9B1A8B46204603EB00
:10E6F0004C13002BD5BF0A462A46C3EB033302EB6B
:10E700000357D8BF02EB035B10EE102A39465B4675
:10E71000FBF7B4FF41EC100B03B0BDE8F08F0139FB
:10E7200002F11403491170B501311469051F00EBA2
:10E73000810103EB8404A3420CD3A31A1132113BD1
:10E7400023F00303A24288BF002318440023884219
:10E7500005D370BD53F8046B45F8046FEBE740F840
:10E76000043BF4E700F114024B110069984210B524
:10E7700011DB0ADD11F01F0107D052F8234024FA03
:10E7800001F000FA01F18C420BD102EB83039342BA
:10E7900003D8002010BD0346F7E753F8041D0029F5
:10E7A000F5D00120F6E74A4313B511460192FDF773
:10E7B000A9F9044618B1019A0021FEF73BF9204659
:10E7C00002B010BD000000009FED010B704700BFBC
:10E7D000000000000000F87F49B1FF2A8DBF8A23A6
:10E7E00001200A70036088BF4FF0FF307047084671
:10E7F00070470000E9BC3F0211BD3F0215BD3F025A
:10E8000000000000436F6F6C0048656174004F6644
:10E810006600524544414C4552540074656D704346
:10E820000074617267657454656D70006D6F646526
:10E830000063465F7365744D6F64650063465F7384
:10E84000657454617267657454656D7000536574C6
:10E85000757020636F6D706C6574652E0054656D06
:10E860007020433A20006E616E00696E66006F761C
:10E87000660043757272656E74206D6F64653A2030
:10E88000005350492F5350493120696E74657266A8
:10E89000616365206E6F7420646566696E656421CE
:10E8A00000000000506978656C2074797065206EF6
:10E8B0006F7420737570706F72746564210000004E
:10E8C0004E6F7420656E6F756768206D656D6F7231
:10E8D0007920617661696C61626C652100000000DD
:10E8E0000000000000000000FDCD3F02F3CD3F021C
:10E8F000E9CD3F02DFCD3F02D3CD3F02C7CD3F027E
:10E900000DD03F0215D03F02BBCD3F02B3CD3F0239
:10E91000A9CD3F029FCD3F0261D13F0245D03F02CA
:10E920004DD03F0200000000000000001DCE3F025D
:10E9300067CE3F023FCE3F021FCE3F0247CE3F028F
:10E940004FCE3F0257CE3F025FCE3F0269D33F0218
:10E950000000000000000000DDCE3F02CDCE3F02EF
:10E96000CFCE3F026170700020AF071084AF071058
:10E9700040AF07100000000000000000CDCF3F02B4
:10E98000D7CF3F02E1CF3F02EBCF3F02F5CF3F02AF
:10E9900001D03F020DD03F0215D03F021DD03F02F3
:10E9A00029D03F0231D03F023BD03F0261D13F022C
:10E9B00045D03F024DD03F020008101820283038C3
:10E9C00025592D256D2D25645425483A254D3A2588
:10E9D00053257A0061736374696D6500000000005F
:10E9E0000000000005D53F0271D53F0249D53F0226
:10E9F00089D13F0219D53F0235D53F0227D53F02C5
:10EA000043D53F0269D33F0207D53F020BD53F02F2
:10EA10000000000000000000B5D53F021DD63F02F7
:10EA2000F3D53F0289D13F02E5D53F02B7D53F027A
:10EA3000C7D53F0217D63F0269D33F02D7D53F0261
:10EA4000AFD53F02000000000000000013D73F02D6
:10EA500009D73F02FFD63F02B5D63F02F3D63F02A9
:10EA6000E7D63F020DD03F0215D03F02DBD63F0272
:10EA7000D3D63F02C9D63F02BFD63F0261D13F0283
:10EA800045D03F024DD03F02005245454E54206DC7
:10EA9000616C6C6F632073756363656564656400A6
:10EAA0002F746D702F6A656E6B696E732D474343CB
:10EAB0002D31302D706970656C696E652D34385F4D
:10EAC00032303230313132345F31363036313830F5
:10EAD0003633392F7372632F6E65776C69622F6ED0
:10EAE00065776C69622F6C6962632F7374646C69FB
:10EAF000622F72616E642E6300696E697479000022
:10EB000035000000CEFBFFFFCB030000010000003A
:10EB10000000000034000000CEFBFFFFCB0300002C
:10EB20000100000000000000BC89D897B2D29C3CD4
:10EB300033A7A8D523F649393DA7F444FD0FA532E4
:10EB40009D978CCF08BA5B25436FAC64280668118B
:10EB500000202020202020202020282828282820AD
:10EB600020202020202020202020202020202020A5
:10EB7000208810101010101010101010101010100D
:10EB800010040404040404040404041010101010FD
:10EB900010104141414141410101010101010101C7
:10EBA0000101010101010101010101011010101019
:10EBB0001010424242424242020202020202020299
:10EBC00002020202020202020202020210101010ED
:10EBD0002000000000000000000000000000000015
:10EBE0000000000000000000000000000000000025
:10EBF0000000000000000000000000000000000015
:10EC00000000000000000000000000000000000004
:10EC100000000000000000000000000000000000F4
:10EC200000000000000000000000000000000000E4
:10EC300000000000000000000000000000000000D4
:10EC400000000000000000000000000000000000C4
:10EC50000042616C6C6F6320737563636565646506
:10EC600064002F746D702F6A656E6B696E732D472B
:10EC700043432D31302D706970656C696E652D349C
:10EC8000385F32303230313132345F313630363104
:10EC900038303633392F7372632F6E65776C696243
:10ECA0002F6E65776C69622F6C6962632F73746471
:10ECB0006C69622F6764746F612D6765746865782D
:10ECC0002E630000FBF93F0205FA3F026CAD07100E
:10ECD000504F534958002F746D702F6A656E6B69E1
:10ECE0006E732D4743432D31302D706970656C690B
:10ECF0006E652D34385F32303230313132345F312D
:10ED00003630363138303633392F7372632F6E65B3
:10ED1000776C69622F6E65776C69622F6C696263CC
:10ED20002F7374646C69622F6D707265632E63005B
:10ED30000080E03779C34143176E05B5B5B89346F7
:10ED4000F5F93FE9034F384D321D30F94877825AC3
:10ED50003CBF737FDD4F1575000000000000F03FE1
:10ED600000000000000024400000000000005940A6
:10ED70000000000000408F40000000000088C340F9
:10ED800000000000006AF8400000000080842E416E
:10ED900000000000D01263410000000084D79741BA
:10EDA0000000000065CDCD41000000205FA00242C0
:10EDB000000000E876483742000000A2941A6D4235
:10EDC000000040E59C30A2420000901EC4BCD64228
:10EDD00000003426F56B0C430080E03779C34143D3
:10EDE00000A0D8855734764300C84E676DC1AB4349
:10EDF000003D9160E458E143408CB5781DAF154467
:10EE000050EFE2D6E41A4B4492D54D06CFF0804441
:10EE1000F64AE1C7022DB544B49DD9794378EA4456
:10EE200005000000190000007D000000B1C03F0295
:10EE300031CD3F0241CD3F0209CE3F02B1CE3F026C
:10EE4000BDCF3F0275D13F0251D23F02CDD43F0228
:08EE5000F1D43F021DD73F027F
:10EE580000000002010000000200000001000000A4
:10EE680000000000000039400B00000074FB3F0266
:10EE78000CAD0710000000000000000000000000BA
:10EE8800000000000000000000000000000000007A
:10EE9800000000000000000000000000000000006A
:10EEA800000000000000000000000000000000005A
:10EEB800000000000000000000000000000000004A
:10EEC800000000000000000000000000000000003A
:10EED80000000000FF0000004300000000000000E8
:10EEE800000000000000000000000000000000001A
:10EEF80000000000000000004300000000000000C7
:10EF080000000000000000000000000000000000F9
:10EF180000000000000000004300000000000000A6
:10EF280000000000000000000000000000000000D9
:10EF38000000000000000000430000000000000086
:10EF480000000000000000000000000000000000B9
:10EF58000000000000000000430000000000000066
:10EF68000000000000000000000000000000000099
:10EF78000000000000000000430000000000000046
:10EF88000000000000000000000000000000000079
:10EF98000000000000000000430000000000000026
:10EFA8000000000000000000000000000000000059
:10EFB800000000000000000079F93F0299EF3F02CD
:10EFC80000000000F0FC3F02FBF93F0205FA3F0297
:10EFD80005FA3F0205FA3F0205FA3F0205FA3F0229
:10EFE80005FA3F0205FA3F0205FA3F0205FA3F0219
:10EFF800FFFFFFFFFFFFFFFFFFFFFFFFFFFF000017
:10F00800010041534349490000000000000000008E
:10F0180000000000000000000000000000000000E8
:10F02800000041534349490000000000000000006F
:10F0380000000000000000000000000000000000C8
:04F0480000000000C4
:04F04C0000000000C0
:10FFBE000200100000A05F08A8A05F0848B23F0230
:10FFCE0001000A00FFFFFFFFFFFF00000102030414
:10FFDE0005060708090A0B0C0D0E0F10111213144B
:0EFFEE0015161718191A1B1C1D1E1F203E0089
:04FFFC0078563412ED
:04000005085FA018D8
:00000001FF
